{
  "_format": "hh-sol-artifact-1",
  "contractName": "TaskContract",
  "sourceName": "contracts/TaskContract.sol",
  "abi": [
    {
      "anonymous": false,
      "inputs": [
        {
          "indexed": false,
          "internalType": "address",
          "name": "recipient",
          "type": "address"
        },
        {
          "indexed": false,
          "internalType": "uint256",
          "name": "taskId",
          "type": "uint256"
        }
      ],
      "name": "AddTask",
      "type": "event"
    },
    {
      "anonymous": false,
      "inputs": [
        {
          "indexed": false,
          "internalType": "uint256",
          "name": "taskId",
          "type": "uint256"
        },
        {
          "indexed": false,
          "internalType": "bool",
          "name": "isDeleted",
          "type": "bool"
        }
      ],
      "name": "DeleteTask",
      "type": "event"
    },
    {
      "inputs": [
        {
          "internalType": "string",
          "name": "taskText",
          "type": "string"
        },
        {
          "internalType": "bool",
          "name": "isDeleted",
          "type": "bool"
        }
      ],
      "name": "addTask",
      "outputs": [],
      "stateMutability": "nonpayable",
      "type": "function"
    },
    {
      "inputs": [
        {
          "internalType": "uint256",
          "name": "taskId",
          "type": "uint256"
        },
        {
          "internalType": "bool",
          "name": "isDeleted",
          "type": "bool"
        }
      ],
      "name": "deleteTask",
      "outputs": [],
      "stateMutability": "nonpayable",
      "type": "function"
    },
    {
      "inputs": [],
      "name": "getMyTasks",
      "outputs": [
        {
          "components": [
            {
              "internalType": "uint256",
              "name": "id",
              "type": "uint256"
            },
            {
              "internalType": "address",
              "name": "username",
              "type": "address"
            },
            {
              "internalType": "string",
              "name": "taskText",
              "type": "string"
            },
            {
              "internalType": "bool",
              "name": "isDeleted",
              "type": "bool"
            }
          ],
          "internalType": "struct TaskContract.Task[]",
          "name": "",
          "type": "tuple[]"
        }
      ],
      "stateMutability": "view",
      "type": "function"
    }
  ],
  "bytecode": "0x608060405234801561001057600080fd5b50610e62806100206000396000f3fe608060405234801561001057600080fd5b50600436106100415760003560e01c806320df4581146100465780636e13f81814610062578063aaba290714610080575b600080fd5b610060600480360381019061005b91906108fc565b61009c565b005b61006a610229565b6040516100779190610b34565b60405180910390f35b61009a60048036038101906100959190610950565b61067f565b005b600080805490509050600060405180608001604052808381526020013373ffffffffffffffffffffffffffffffffffffffff16815260200185815260200184151581525090806001815401808255809150506001900390600052602060002090600402016000909190919091506000820151816000015560208201518160010160006101000a81548173ffffffffffffffffffffffffffffffffffffffff021916908373ffffffffffffffffffffffffffffffffffffffff1602179055506040820151816002019080519060200190610176929190610787565b5060608201518160030160006101000a81548160ff0219169083151502179055505050336001600083815260200190815260200160002060006101000a81548173ffffffffffffffffffffffffffffffffffffffff021916908373ffffffffffffffffffffffffffffffffffffffff1602179055507f1f54e1ba1832d428fbd7e7792beaf62b1fc5a382c207ffd614209c1413e94fda338260405161021c929190610b0b565b60405180910390a1505050565b60606000808054905067ffffffffffffffff811115610271577f4e487b7100000000000000000000000000000000000000000000000000000000600052604160045260246000fd5b6040519080825280602002602001820160405280156102aa57816020015b61029761080d565b81526020019060019003908161028f5790505b5090506000805b600080549050811015610553573373ffffffffffffffffffffffffffffffffffffffff166001600083815260200190815260200160002060009054906101000a900473ffffffffffffffffffffffffffffffffffffffff1673ffffffffffffffffffffffffffffffffffffffff1614801561038857506000151560008281548110610365577f4e487b7100000000000000000000000000000000000000000000000000000000600052603260045260246000fd5b906000526020600020906004020160030160009054906101000a900460ff161515145b1561054057600081815481106103c7577f4e487b7100000000000000000000000000000000000000000000000000000000600052603260045260246000fd5b9060005260206000209060040201604051806080016040529081600082015481526020016001820160009054906101000a900473ffffffffffffffffffffffffffffffffffffffff1673ffffffffffffffffffffffffffffffffffffffff1673ffffffffffffffffffffffffffffffffffffffff16815260200160028201805461045090610cb4565b80601f016020809104026020016040519081016040528092919081815260200182805461047c90610cb4565b80156104c95780601f1061049e576101008083540402835291602001916104c9565b820191906000526020600020905b8154815290600101906020018083116104ac57829003601f168201915b505050505081526020016003820160009054906101000a900460ff161515151581525050838381518110610526577f4e487b7100000000000000000000000000000000000000000000000000000000600052603260045260246000fd5b6020026020010181905250818061053c90610d17565b9250505b808061054b90610d17565b9150506102b1565b5060008167ffffffffffffffff811115610596577f4e487b7100000000000000000000000000000000000000000000000000000000600052604160045260246000fd5b6040519080825280602002602001820160405280156105cf57816020015b6105bc61080d565b8152602001906001900390816105b45790505b50905060005b8281101561067557838181518110610616577f4e487b7100000000000000000000000000000000000000000000000000000000600052603260045260246000fd5b6020026020010151828281518110610657577f4e487b7100000000000000000000000000000000000000000000000000000000600052603260045260246000fd5b6020026020010181905250808061066d90610d17565b9150506105d5565b5080935050505090565b3373ffffffffffffffffffffffffffffffffffffffff166001600084815260200190815260200160002060009054906101000a900473ffffffffffffffffffffffffffffffffffffffff1673ffffffffffffffffffffffffffffffffffffffff161415610783578060008381548110610721577f4e487b7100000000000000000000000000000000000000000000000000000000600052603260045260246000fd5b906000526020600020906004020160030160006101000a81548160ff0219169083151502179055507ff88a35c3d2016c409a46570b994a17b408dbc83c14a03f521512d50b85386d06828260405161077a929190610b56565b60405180910390a15b5050565b82805461079390610cb4565b90600052602060002090601f0160209004810192826107b557600085556107fc565b82601f106107ce57805160ff19168380011785556107fc565b828001600101855582156107fc579182015b828111156107fb5782518255916020019190600101906107e0565b5b509050610809919061084d565b5090565b604051806080016040528060008152602001600073ffffffffffffffffffffffffffffffffffffffff168152602001606081526020016000151581525090565b5b8082111561086657600081600090555060010161084e565b5090565b600061087d61087884610ba4565b610b7f565b90508281526020810184848401111561089557600080fd5b6108a0848285610c72565b509392505050565b6000813590506108b781610dfe565b92915050565b600082601f8301126108ce57600080fd5b81356108de84826020860161086a565b91505092915050565b6000813590506108f681610e15565b92915050565b6000806040838503121561090f57600080fd5b600083013567ffffffffffffffff81111561092957600080fd5b610935858286016108bd565b9250506020610946858286016108a8565b9150509250929050565b6000806040838503121561096357600080fd5b6000610971858286016108e7565b9250506020610982858286016108a8565b9150509250929050565b60006109988383610a8a565b905092915050565b6109a981610c2a565b82525050565b6109b881610c2a565b82525050565b60006109c982610be5565b6109d38185610c08565b9350836020820285016109e585610bd5565b8060005b85811015610a215784840389528151610a02858261098c565b9450610a0d83610bfb565b925060208a019950506001810190506109e9565b50829750879550505050505092915050565b610a3c81610c3c565b82525050565b610a4b81610c3c565b82525050565b6000610a5c82610bf0565b610a668185610c19565b9350610a76818560208601610c81565b610a7f81610ded565b840191505092915050565b6000608083016000830151610aa26000860182610aed565b506020830151610ab560208601826109a0565b5060408301518482036040860152610acd8282610a51565b9150506060830151610ae26060860182610a33565b508091505092915050565b610af681610c68565b82525050565b610b0581610c68565b82525050565b6000604082019050610b2060008301856109af565b610b2d6020830184610afc565b9392505050565b60006020820190508181036000830152610b4e81846109be565b905092915050565b6000604082019050610b6b6000830185610afc565b610b786020830184610a42565b9392505050565b6000610b89610b9a565b9050610b958282610ce6565b919050565b6000604051905090565b600067ffffffffffffffff821115610bbf57610bbe610dbe565b5b610bc882610ded565b9050602081019050919050565b6000819050602082019050919050565b600081519050919050565b600081519050919050565b6000602082019050919050565b600082825260208201905092915050565b600082825260208201905092915050565b6000610c3582610c48565b9050919050565b60008115159050919050565b600073ffffffffffffffffffffffffffffffffffffffff82169050919050565b6000819050919050565b82818337600083830152505050565b60005b83811015610c9f578082015181840152602081019050610c84565b83811115610cae576000848401525b50505050565b60006002820490506001821680610ccc57607f821691505b60208210811415610ce057610cdf610d8f565b5b50919050565b610cef82610ded565b810181811067ffffffffffffffff82111715610d0e57610d0d610dbe565b5b80604052505050565b6000610d2282610c68565b91507fffffffffffffffffffffffffffffffffffffffffffffffffffffffffffffffff821415610d5557610d54610d60565b5b600182019050919050565b7f4e487b7100000000000000000000000000000000000000000000000000000000600052601160045260246000fd5b7f4e487b7100000000000000000000000000000000000000000000000000000000600052602260045260246000fd5b7f4e487b7100000000000000000000000000000000000000000000000000000000600052604160045260246000fd5b6000601f19601f8301169050919050565b610e0781610c3c565b8114610e1257600080fd5b50565b610e1e81610c68565b8114610e2957600080fd5b5056fea26469706673582212209cf2120d1c2331a546dc67e1b144e55ded28e1e2a9bbcd5277ea9cf6eaec679464736f6c63430008040033",
  "linkReferences": {},
  "deployedLinkReferences": {}
}